{
  "transactions": [
    {
      "hash": "0x9e6ce4daa229e6ec3b68ac89467b8853ff837bfa26fa4a2a2b3e0d17a1b585cf",
      "transactionType": "CALL",
      "contractName": null,
      "contractAddress": "0x27c81db5055e3ad378584816a1ebe16c1fbd114f",
      "function": "mintNFT(string)",
      "arguments": [
        "ipfs://bafybeig37ioir76s7mg5oobetncojcm3c3hxasyd4rvid4jqhy4gkaheg4/?filename=0-PUG.json"
      ],
      "transaction": {
        "from": "0xfa462b48e937d6fb3503d5358a0d073fe720e0dd",
        "to": "0x27c81db5055e3ad378584816a1ebe16c1fbd114f",
        "gas": "0x3ae2f",
        "value": "0x0",
        "input": "0xfb37e88300000000000000000000000000000000000000000000000000000000000000200000000000000000000000000000000000000000000000000000000000000057697066733a2f2f62616679626569673337696f6972373673376d67356f6f6265746e636f6a636d3363336878617379643472766964346a71687934676b61686567342f3f66696c656e616d653d302d5055472e6a736f6e000000000000000000",
        "nonce": "0x6",
        "chainId": "0xaa36a7"
      },
      "additionalContracts": [],
      "isFixedGasLimit": false
    }
  ],
  "receipts": [
    {
      "status": "0x1",
      "cumulativeGasUsed": "0xd9cafe",
      "logs": [
        {
          "address": "0x27c81db5055e3ad378584816a1ebe16c1fbd114f",
          "topics": [
            "0xddf252ad1be2c89b69c2b068fc378daa952ba7f163c4a11628f55a4df523b3ef",
            "0x0000000000000000000000000000000000000000000000000000000000000000",
            "0x000000000000000000000000fa462b48e937d6fb3503d5358a0d073fe720e0dd",
            "0x0000000000000000000000000000000000000000000000000000000000000001"
          ],
          "data": "0x",
          "blockHash": "0x684f15666ca042908e5d2c878ce4445352e097863cbf29ab213fc3a8839222fb",
          "blockNumber": "0x71a679",
          "transactionHash": "0x9e6ce4daa229e6ec3b68ac89467b8853ff837bfa26fa4a2a2b3e0d17a1b585cf",
          "transactionIndex": "0x77",
          "logIndex": "0x120",
          "removed": false
        }
      ],
      "logsBloom": "0x00000000000000000000000000000000000000000000000000000000000000000000000000000000000000000000004000000000000000000000000000040000000000000000000000000008000000000000000000040000000000000000000000000000020000200000000000000800000000000000000000000010000000000000000000000000000000008000000000000000000000800000000000000000000000000000000000000000000000000000000000000000000000000000000000000002000000000000000000000000000000000000000000000000000060000004000000000000001000000000000000000000000000000000000000000000",
      "type": "0x2",
      "transactionHash": "0x9e6ce4daa229e6ec3b68ac89467b8853ff837bfa26fa4a2a2b3e0d17a1b585cf",
      "transactionIndex": "0x77",
      "blockHash": "0x684f15666ca042908e5d2c878ce4445352e097863cbf29ab213fc3a8839222fb",
      "blockNumber": "0x71a679",
      "gasUsed": "0x2843b",
      "effectiveGasPrice": "0x269ed2d0c",
      "from": "0xfa462b48e937d6fb3503d5358a0d073fe720e0dd",
      "to": "0x27c81db5055e3ad378584816a1ebe16c1fbd114f",
      "contractAddress": null
    }
  ],
  "libraries": [],
  "pending": [],
  "returns": {},
  "timestamp": 1736358505,
  "chain": 11155111,
  "commit": "126b2bb"
}