{
  "transactions": [
    {
      "hash": "0x9b19ce9d03804d44f8dcf2c348b5598c0c00f2340ecc4552f528f6625a1e4ac7",
      "transactionType": "CALL",
      "contractName": null,
      "contractAddress": "0x27c81db5055e3ad378584816a1ebe16c1fbd114f",
      "function": "mintNFT(string)",
      "arguments": [
        "ipfs://bafybeig37ioir76s7mg5oobetncojcm3c3hxasyd4rvid4jqhy4gkaheg4/?filename=0-PUG.json"
      ],
      "transaction": {
        "from": "0x1430fddec8bf2adf4accfa1b4b0af32e0b8c0eb6",
        "to": "0x27c81db5055e3ad378584816a1ebe16c1fbd114f",
        "gas": "0x3d61a",
        "value": "0x0",
        "input": "0xfb37e88300000000000000000000000000000000000000000000000000000000000000200000000000000000000000000000000000000000000000000000000000000057697066733a2f2f62616679626569673337696f6972373673376d67356f6f6265746e636f6a636d3363336878617379643472766964346a71687934676b61686567342f3f66696c656e616d653d302d5055472e6a736f6e000000000000000000",
        "nonce": "0xf",
        "chainId": "0xaa36a7"
      },
      "additionalContracts": [],
      "isFixedGasLimit": false
    }
  ],
  "receipts": [
    {
      "status": "0x1",
      "cumulativeGasUsed": "0x6dc30f",
      "logs": [
        {
          "address": "0x27c81db5055e3ad378584816a1ebe16c1fbd114f",
          "topics": [
            "0xddf252ad1be2c89b69c2b068fc378daa952ba7f163c4a11628f55a4df523b3ef",
            "0x0000000000000000000000000000000000000000000000000000000000000000",
            "0x0000000000000000000000001430fddec8bf2adf4accfa1b4b0af32e0b8c0eb6",
            "0x0000000000000000000000000000000000000000000000000000000000000000"
          ],
          "data": "0x",
          "blockHash": "0xf71ab1b81288115a27d662f09beba928fc4da22c29ce5e1431ddf80148a61642",
          "blockNumber": "0x71a668",
          "transactionHash": "0x9b19ce9d03804d44f8dcf2c348b5598c0c00f2340ecc4552f528f6625a1e4ac7",
          "transactionIndex": "0x43",
          "logIndex": "0x64",
          "removed": false
        }
      ],
      "logsBloom": "0x00000000000000000000000000000000000000000000000000000000000000000000000000000000000000000000000000000000000000000000000000000000000000000000000000000008000000000000000000000000000000000000000000000000060000200010000000000800000000000000000000000010000000000000000000000000000000008000000000000000000000000000000000000000000000000000000000000000000000000000000000000000000000000000000000000002000000000000000000000000000000000000000000000000000020000000000000000000001000000000000000000000100000000000000000000000",
      "type": "0x2",
      "transactionHash": "0x9b19ce9d03804d44f8dcf2c348b5598c0c00f2340ecc4552f528f6625a1e4ac7",
      "transactionIndex": "0x43",
      "blockHash": "0xf71ab1b81288115a27d662f09beba928fc4da22c29ce5e1431ddf80148a61642",
      "blockNumber": "0x71a668",
      "gasUsed": "0x2c707",
      "effectiveGasPrice": "0x318bd51b5",
      "from": "0x1430fddec8bf2adf4accfa1b4b0af32e0b8c0eb6",
      "to": "0x27c81db5055e3ad378584816a1ebe16c1fbd114f",
      "contractAddress": null
    }
  ],
  "libraries": [],
  "pending": [],
  "returns": {},
  "timestamp": 1736358301,
  "chain": 11155111,
  "commit": "126b2bb"
}